{
  "contractName": "Authentication",
  "abi": [
    {
      "constant": true,
      "inputs": [
        {
          "name": "",
          "type": "address"
        }
      ],
      "name": "admins",
      "outputs": [
        {
          "name": "",
          "type": "bool"
        }
      ],
      "payable": false,
      "stateMutability": "view",
      "type": "function"
    },
    {
      "constant": true,
      "inputs": [
        {
          "name": "",
          "type": "uint256"
        }
      ],
      "name": "adminAudit",
      "outputs": [
        {
          "name": "",
          "type": "address"
        }
      ],
      "payable": false,
      "stateMutability": "view",
      "type": "function"
    },
    {
      "constant": true,
      "inputs": [
        {
          "name": "",
          "type": "uint256"
        }
      ],
      "name": "storeOwnerAudit",
      "outputs": [
        {
          "name": "",
          "type": "address"
        }
      ],
      "payable": false,
      "stateMutability": "view",
      "type": "function"
    },
    {
      "constant": true,
      "inputs": [],
      "name": "owner",
      "outputs": [
        {
          "name": "",
          "type": "address"
        }
      ],
      "payable": false,
      "stateMutability": "view",
      "type": "function"
    },
    {
      "constant": false,
      "inputs": [
        {
          "name": "newOwner",
          "type": "address"
        }
      ],
      "name": "transferOwnership",
      "outputs": [],
      "payable": false,
      "stateMutability": "nonpayable",
      "type": "function"
    },
    {
      "inputs": [],
      "payable": false,
      "stateMutability": "nonpayable",
      "type": "constructor"
    },
    {
      "anonymous": false,
      "inputs": [
        {
          "indexed": false,
          "name": "addedBy",
          "type": "address"
        },
        {
          "indexed": false,
          "name": "admin",
          "type": "address"
        }
      ],
      "name": "AdminAdded",
      "type": "event"
    },
    {
      "anonymous": false,
      "inputs": [
        {
          "indexed": false,
          "name": "removedBy",
          "type": "address"
        },
        {
          "indexed": false,
          "name": "admin",
          "type": "address"
        }
      ],
      "name": "AdminRemoved",
      "type": "event"
    },
    {
      "anonymous": false,
      "inputs": [
        {
          "indexed": false,
          "name": "addedBy",
          "type": "address"
        },
        {
          "indexed": false,
          "name": "account",
          "type": "address"
        }
      ],
      "name": "StoreOwnerAdded",
      "type": "event"
    },
    {
      "anonymous": false,
      "inputs": [
        {
          "indexed": false,
          "name": "removedBy",
          "type": "address"
        },
        {
          "indexed": false,
          "name": "account",
          "type": "address"
        }
      ],
      "name": "StoreOwnerRemoved",
      "type": "event"
    },
    {
      "anonymous": false,
      "inputs": [
        {
          "indexed": true,
          "name": "previousOwner",
          "type": "address"
        },
        {
          "indexed": true,
          "name": "newOwner",
          "type": "address"
        }
      ],
      "name": "OwnershipTransferred",
      "type": "event"
    },
    {
      "constant": true,
      "inputs": [
        {
          "name": "_address",
          "type": "address"
        }
      ],
      "name": "isCurrentAdmin",
      "outputs": [
        {
          "name": "",
          "type": "bool"
        }
      ],
      "payable": false,
      "stateMutability": "view",
      "type": "function"
    },
    {
      "constant": true,
      "inputs": [
        {
          "name": "_address",
          "type": "address"
        }
      ],
      "name": "isCurrentOrPastAdmin",
      "outputs": [
        {
          "name": "",
          "type": "bool"
        }
      ],
      "payable": false,
      "stateMutability": "view",
      "type": "function"
    },
    {
      "constant": true,
      "inputs": [
        {
          "name": "_address",
          "type": "address"
        }
      ],
      "name": "isCurrentStoreOwner",
      "outputs": [
        {
          "name": "",
          "type": "bool"
        }
      ],
      "payable": false,
      "stateMutability": "view",
      "type": "function"
    },
    {
      "constant": true,
      "inputs": [
        {
          "name": "_address",
          "type": "address"
        }
      ],
      "name": "isCurrentOrPastStoreOwner",
      "outputs": [
        {
          "name": "",
          "type": "bool"
        }
      ],
      "payable": false,
      "stateMutability": "view",
      "type": "function"
    },
    {
      "constant": true,
      "inputs": [],
      "name": "getAdmins",
      "outputs": [
        {
          "name": "adminAddresses",
          "type": "address[]"
        }
      ],
      "payable": false,
      "stateMutability": "view",
      "type": "function"
    },
    {
      "constant": true,
      "inputs": [],
      "name": "getStoreOwners",
      "outputs": [
        {
          "name": "storeOwnerAddresses",
          "type": "address[]"
        }
      ],
      "payable": false,
      "stateMutability": "view",
      "type": "function"
    },
    {
      "constant": false,
      "inputs": [
        {
          "name": "_address",
          "type": "address"
        }
      ],
      "name": "addAdmin",
      "outputs": [],
      "payable": false,
      "stateMutability": "nonpayable",
      "type": "function"
    },
    {
      "constant": false,
      "inputs": [
        {
          "name": "_address",
          "type": "address"
        }
      ],
      "name": "removeAdmin",
      "outputs": [],
      "payable": false,
      "stateMutability": "nonpayable",
      "type": "function"
    },
    {
      "constant": false,
      "inputs": [
        {
          "name": "_address",
          "type": "address"
        }
      ],
      "name": "addStoreOwner",
      "outputs": [],
      "payable": false,
      "stateMutability": "nonpayable",
      "type": "function"
    },
    {
      "constant": false,
      "inputs": [
        {
          "name": "_address",
          "type": "address"
        }
      ],
      "name": "removeStoreOwner",
      "outputs": [],
      "payable": false,
      "stateMutability": "nonpayable",
      "type": "function"
    }
  ],
  "bytecode": "0x608060405234801561001057600080fd5b50336000806101000a81548173ffffffffffffffffffffffffffffffffffffffff021916908373ffffffffffffffffffffffffffffffffffffffff16021790555060018060003373ffffffffffffffffffffffffffffffffffffffff1673ffffffffffffffffffffffffffffffffffffffff16815260200190815260200160002060006101000a81548160ff0219169083151502179055507fbf3f493c772c8c283fd124432c2d0f539ab343faa04258fe88e52912d36b102b600033604051808373ffffffffffffffffffffffffffffffffffffffff1681526020018273ffffffffffffffffffffffffffffffffffffffff1673ffffffffffffffffffffffffffffffffffffffff1681526020019250505060405180910390a16003805480919060010161013e91906101a4565b5033600360016003805490500381548110151561015757fe5b9060005260206000200160006101000a81548173ffffffffffffffffffffffffffffffffffffffff021916908373ffffffffffffffffffffffffffffffffffffffff1602179055506101f5565b8154818355818111156101cb578183600052602060002091820191016101ca91906101d0565b5b505050565b6101f291905b808211156101ee5760008160009055506001016101d6565b5090565b90565b61138a806102046000396000f3006080604052600436106100db576000357c0100000000000000000000000000000000000000000000000000000000900463ffffffff1680631785f53c146100e057806331ae450b14610123578063429b62e51461018f57806351822a7b146101ea5780636174fdd11461024557806370480275146102885780638661d4e3146102cb578063875798c1146103385780638da5cb5b146103a557806391f4245a146103fc5780639adeb5f114610468578063b804cd9d146104ab578063bbb896ad14610506578063c0395bb514610561578063f2fde38b146105bc575b600080fd5b3480156100ec57600080fd5b50610121600480360381019080803573ffffffffffffffffffffffffffffffffffffffff1690602001909291905050506105ff565b005b34801561012f57600080fd5b50610138610798565b6040518080602001828103825283818151815260200191508051906020019060200280838360005b8381101561017b578082015181840152602081019050610160565b505050509050019250505060405180910390f35b34801561019b57600080fd5b506101d0600480360381019080803573ffffffffffffffffffffffffffffffffffffffff169060200190929190505050610826565b604051808215151515815260200191505060405180910390f35b3480156101f657600080fd5b5061022b600480360381019080803573ffffffffffffffffffffffffffffffffffffffff169060200190929190505050610846565b604051808215151515815260200191505060405180910390f35b34801561025157600080fd5b50610286600480360381019080803573ffffffffffffffffffffffffffffffffffffffff1690602001909291905050506108e9565b005b34801561029457600080fd5b506102c9600480360381019080803573ffffffffffffffffffffffffffffffffffffffff169060200190929190505050610a47565b005b3480156102d757600080fd5b506102f660048036038101908080359060200190929190505050610cc0565b604051808273ffffffffffffffffffffffffffffffffffffffff1673ffffffffffffffffffffffffffffffffffffffff16815260200191505060405180910390f35b34801561034457600080fd5b5061036360048036038101908080359060200190929190505050610cfe565b604051808273ffffffffffffffffffffffffffffffffffffffff1673ffffffffffffffffffffffffffffffffffffffff16815260200191505060405180910390f35b3480156103b157600080fd5b506103ba610d3c565b604051808273ffffffffffffffffffffffffffffffffffffffff1673ffffffffffffffffffffffffffffffffffffffff16815260200191505060405180910390f35b34801561040857600080fd5b50610411610d61565b6040518080602001828103825283818151815260200191508051906020019060200280838360005b83811015610454578082015181840152602081019050610439565b505050509050019250505060405180910390f35b34801561047457600080fd5b506104a9600480360381019080803573ffffffffffffffffffffffffffffffffffffffff169060200190929190505050610def565b005b3480156104b757600080fd5b506104ec600480360381019080803573ffffffffffffffffffffffffffffffffffffffff169060200190929190505050611069565b604051808215151515815260200191505060405180910390f35b34801561051257600080fd5b50610547600480360381019080803573ffffffffffffffffffffffffffffffffffffffff1690602001909291905050506110bf565b604051808215151515815260200191505060405180910390f35b34801561056d57600080fd5b506105a2600480360381019080803573ffffffffffffffffffffffffffffffffffffffff169060200190929190505050611115565b604051808215151515815260200191505060405180910390f35b3480156105c857600080fd5b506105fd600480360381019080803573ffffffffffffffffffffffffffffffffffffffff1690602001909291905050506111b8565b005b610608336110bf565b151561061357600080fd5b3373ffffffffffffffffffffffffffffffffffffffff168173ffffffffffffffffffffffffffffffffffffffff161415151561064e57600080fd5b600160008273ffffffffffffffffffffffffffffffffffffffff1673ffffffffffffffffffffffffffffffffffffffff16815260200190815260200160002060009054906101000a900460ff1615156106a657600080fd5b6000600160008373ffffffffffffffffffffffffffffffffffffffff1673ffffffffffffffffffffffffffffffffffffffff16815260200190815260200160002060006101000a81548160ff0219169083151502179055507fdb9d5d31320daf5bc7181d565b6da4d12e30f0f4d5aa324a992426c14a1d19ce3382604051808373ffffffffffffffffffffffffffffffffffffffff1673ffffffffffffffffffffffffffffffffffffffff1681526020018273ffffffffffffffffffffffffffffffffffffffff1673ffffffffffffffffffffffffffffffffffffffff1681526020019250505060405180910390a150565b6060600380548060200260200160405190810160405280929190818152602001828054801561081c57602002820191906000526020600020905b8160009054906101000a900473ffffffffffffffffffffffffffffffffffffffff1673ffffffffffffffffffffffffffffffffffffffff16815260200190600101908083116107d2575b5050505050905090565b60016020528060005260406000206000915054906101000a900460ff1681565b600080600090505b6004805490508110156108de578273ffffffffffffffffffffffffffffffffffffffff1660048281548110151561088157fe5b9060005260206000200160009054906101000a900473ffffffffffffffffffffffffffffffffffffffff1673ffffffffffffffffffffffffffffffffffffffff1614156108d157600191506108e3565b808060010191505061084e565b600091505b50919050565b6108f2336110bf565b15156108fd57600080fd5b600260008273ffffffffffffffffffffffffffffffffffffffff1673ffffffffffffffffffffffffffffffffffffffff16815260200190815260200160002060009054906101000a900460ff16151561095557600080fd5b6000600260008373ffffffffffffffffffffffffffffffffffffffff1673ffffffffffffffffffffffffffffffffffffffff16815260200190815260200160002060006101000a81548160ff0219169083151502179055507f0a1ed8fb4c404c88bd723e6c01501a7c839bbdb95a77a4d9eb43cd752a7c19c73382604051808373ffffffffffffffffffffffffffffffffffffffff1673ffffffffffffffffffffffffffffffffffffffff1681526020018273ffffffffffffffffffffffffffffffffffffffff1673ffffffffffffffffffffffffffffffffffffffff1681526020019250505060405180910390a150565b600080610a53336110bf565b1515610a5e57600080fd5b600160008473ffffffffffffffffffffffffffffffffffffffff1673ffffffffffffffffffffffffffffffffffffffff16815260200190815260200160002060009054906101000a900460ff16151515610ab757600080fd5b60018060008573ffffffffffffffffffffffffffffffffffffffff1673ffffffffffffffffffffffffffffffffffffffff16815260200190815260200160002060006101000a81548160ff0219169083151502179055507fbf3f493c772c8c283fd124432c2d0f539ab343faa04258fe88e52912d36b102b3384604051808373ffffffffffffffffffffffffffffffffffffffff1673ffffffffffffffffffffffffffffffffffffffff1681526020018273ffffffffffffffffffffffffffffffffffffffff1673ffffffffffffffffffffffffffffffffffffffff1681526020019250505060405180910390a160009150600090505b600380549050811015610c3e578273ffffffffffffffffffffffffffffffffffffffff16600382815481101515610be157fe5b9060005260206000200160009054906101000a900473ffffffffffffffffffffffffffffffffffffffff1673ffffffffffffffffffffffffffffffffffffffff161415610c315760019150610c3e565b8080600101915050610bae565b811515610cbb5760038054809190600101610c59919061130d565b50826003600160038054905003815481101515610c7257fe5b9060005260206000200160006101000a81548173ffffffffffffffffffffffffffffffffffffffff021916908373ffffffffffffffffffffffffffffffffffffffff1602179055505b505050565b600381815481101515610ccf57fe5b906000526020600020016000915054906101000a900473ffffffffffffffffffffffffffffffffffffffff1681565b600481815481101515610d0d57fe5b906000526020600020016000915054906101000a900473ffffffffffffffffffffffffffffffffffffffff1681565b6000809054906101000a900473ffffffffffffffffffffffffffffffffffffffff1681565b60606004805480602002602001604051908101604052809291908181526020018280548015610de557602002820191906000526020600020905b8160009054906101000a900473ffffffffffffffffffffffffffffffffffffffff1673ffffffffffffffffffffffffffffffffffffffff1681526020019060010190808311610d9b575b5050505050905090565b600080610dfb336110bf565b1515610e0657600080fd5b600260008473ffffffffffffffffffffffffffffffffffffffff1673ffffffffffffffffffffffffffffffffffffffff16815260200190815260200160002060009054906101000a900460ff16151515610e5f57600080fd5b6001600260008573ffffffffffffffffffffffffffffffffffffffff1673ffffffffffffffffffffffffffffffffffffffff16815260200190815260200160002060006101000a81548160ff0219169083151502179055507fcbddd9b3c6b75faa4eadb38c3daff8b88277ce646307e512d6b5dd759c3a1b813384604051808373ffffffffffffffffffffffffffffffffffffffff1673ffffffffffffffffffffffffffffffffffffffff1681526020018273ffffffffffffffffffffffffffffffffffffffff1673ffffffffffffffffffffffffffffffffffffffff1681526020019250505060405180910390a160009150600090505b600480549050811015610fe7578273ffffffffffffffffffffffffffffffffffffffff16600482815481101515610f8a57fe5b9060005260206000200160009054906101000a900473ffffffffffffffffffffffffffffffffffffffff1673ffffffffffffffffffffffffffffffffffffffff161415610fda5760019150610fe7565b8080600101915050610f57565b8115156110645760048054809190600101611002919061130d565b5082600460016004805490500381548110151561101b57fe5b9060005260206000200160006101000a81548173ffffffffffffffffffffffffffffffffffffffff021916908373ffffffffffffffffffffffffffffffffffffffff1602179055505b505050565b6000600260008373ffffffffffffffffffffffffffffffffffffffff1673ffffffffffffffffffffffffffffffffffffffff16815260200190815260200160002060009054906101000a900460ff169050919050565b6000600160008373ffffffffffffffffffffffffffffffffffffffff1673ffffffffffffffffffffffffffffffffffffffff16815260200190815260200160002060009054906101000a900460ff169050919050565b600080600090505b6003805490508110156111ad578273ffffffffffffffffffffffffffffffffffffffff1660038281548110151561115057fe5b9060005260206000200160009054906101000a900473ffffffffffffffffffffffffffffffffffffffff1673ffffffffffffffffffffffffffffffffffffffff1614156111a057600191506111b2565b808060010191505061111d565b600091505b50919050565b6000809054906101000a900473ffffffffffffffffffffffffffffffffffffffff1673ffffffffffffffffffffffffffffffffffffffff163373ffffffffffffffffffffffffffffffffffffffff1614151561121357600080fd5b600073ffffffffffffffffffffffffffffffffffffffff168173ffffffffffffffffffffffffffffffffffffffff161415151561124f57600080fd5b8073ffffffffffffffffffffffffffffffffffffffff166000809054906101000a900473ffffffffffffffffffffffffffffffffffffffff1673ffffffffffffffffffffffffffffffffffffffff167f8be0079c531659141344cd1fd0a4f28419497f9722a3daafe3b4186f6b6457e060405160405180910390a3806000806101000a81548173ffffffffffffffffffffffffffffffffffffffff021916908373ffffffffffffffffffffffffffffffffffffffff16021790555050565b815481835581811115611334578183600052602060002091820191016113339190611339565b5b505050565b61135b91905b8082111561135757600081600090555060010161133f565b5090565b905600a165627a7a723058209aba3e0550257973b76dacf040c85ce0323035966819c0b12be10612c672c3370029",
  "source": "pragma solidity ^0.4.22;\n\nimport \"../installed_contracts/zeppelin/contracts/ownership/Ownable.sol\";\n\n/**\n * @title Authentication\n * @dev The Authentication contract provides basic authorization control\n * to the Marketplace.\n */\ncontract Authentication is Ownable {\n    \n    // Map addresses to admins\n    mapping (address => bool) public admins;\n\n    // Map addresses to store owners\n    mapping (address => bool) storeOwners;\n\n    // Keep track of all admins that have ever existed\n    address[] public adminAudit;\n\n    // Keep track of all account readers that have ever existed\n    address[] public storeOwnerAudit;\n\n    // Events\n    event AdminAdded(address addedBy, address admin);\n    event AdminRemoved(address removedBy, address admin);\n    event StoreOwnerAdded(address addedBy, address account);\n    event StoreOwnerRemoved(address removedBy, address account);\n\n    // Construct the contract\n    constructor() public {\n\t\n        // Set the first admin to be the person creating the contract\n        admins[msg.sender] = true;\n        emit AdminAdded(0, msg.sender);\n        adminAudit.length++;\n        adminAudit[adminAudit.length - 1] = msg.sender;\n    }\n\n    /** @dev Function to make sure the specified address is currently an admin.\n      * @param _address Address of an Ethereum account.\n      * @return bool Is the address a current admin.\n      */\n    function isCurrentAdmin(address _address) view public returns (bool) {\n        return admins[_address];\n    }\n\n    /** @dev Function to make sure the specified address has ever been an admin.\n      * @param _address Address of an Ethereum account.\n      * @return bool Is the address a current or past admin.\n      */\n    function isCurrentOrPastAdmin(address _address) view public returns (bool) {\n        for (uint256 i = 0; i < adminAudit.length; i++) {\n            if (adminAudit[i] == _address) {\n                return true;\n            }          \n        }           \n        return false;\n    }\n\n    /** @dev Function to make sure the the specified address is currently a store owner.\n      * @param _address Address of an Ethereum account.\n      * @return bool Is the address a current store owner.\n      */\n    function isCurrentStoreOwner(address _address) view public returns (bool) {\n        return storeOwners[_address];\n    }\n\n    /** @dev Function to make sure the specified address has ever been an admin.\n      * @param _address Address of an Ethereum account.\n      * @return bool Is the address a current or past store owner.\n      */\n    function isCurrentOrPastStoreOwner(address _address) view public returns (bool) {\n        for (uint256 i = 0; i < storeOwnerAudit.length; i++) {\n            if (storeOwnerAudit[i] == _address) {\n                return true;\n            }\n        }    \n        return false;\n    }\n\n    /** @dev Function to return an array of admins.\n      * @return adminAddresses An array of Admin addresses.\n      */\n    function getAdmins() public view returns(address[] adminAddresses) {\n        return adminAudit;\n    }\n    \n    /** @dev Function to return an array of store owners.\n      * @return storeOwnerAddresses An array of Store Owner addresses.\n      */\n    function getStoreOwners() public view returns(address[] storeOwnerAddresses) {\n        return storeOwnerAudit;\n    }\n\n    /** @dev Funtion to add a user to the list of admins.\n      * @param _address Address of an Ethereum account.\n      */\n    function addAdmin(address _address) public {\n        \n        // Ensure we're an admin\n        require(isCurrentAdmin(msg.sender));\n\n        // Fail if this account is already admin\n        require(!admins[_address]);\n        \n        // Add the user\n        admins[_address] = true;\n        emit AdminAdded(msg.sender, _address);\n        \n        bool exists = false;\n        for (uint i = 0; i < adminAudit.length; i++) {\n            if(adminAudit[i] == _address) {\n                exists = true;\n                break;\n            }\n        }\n        \n        if(!exists) {\n            adminAudit.length++;\n            adminAudit[adminAudit.length - 1] = _address;\n        }\n    }\n\n    /** @dev Funtion to remove a user from the list of admins but keeps them in the history audit.\n      * @param _address Address of an Ethereum account.\n      */\n    function removeAdmin(address _address) public {\n        \n        // Ensure we're an admin\n        require(isCurrentAdmin(msg.sender));\n\n        // Don't allow removal of self\n        require(_address != msg.sender);\n\n        // Fail if this account is already non-admin\n        require(admins[_address]);\n\n        // Remove this admin user\n        admins[_address] = false;\n        emit AdminRemoved(msg.sender, _address);\n    }\n\n    /** @dev Funtion to add a user or contract to the list of store owners.\n      * @param _address Address of an Ethereum account.\n      */\n    function addStoreOwner(address _address) public {\n        \n        // Ensure we're an admin\n        require(isCurrentAdmin(msg.sender));\n\n        // Fail if this account is already in the list\n        require(!storeOwners[_address]);\n        \n        // Add the user\n        storeOwners[_address] = true;\n        emit StoreOwnerAdded(msg.sender, _address);\n        \n        bool exists = false;\n        for (uint i = 0; i < storeOwnerAudit.length; i++) {\n            if(storeOwnerAudit[i] == _address) {\n                exists = true;\n                break;\n            }\n        }\n        \n        if(!exists) {\n            storeOwnerAudit.length++;\n            storeOwnerAudit[storeOwnerAudit.length - 1] = _address;\n        }\n    }\n\n    /** @dev Function to remove a user or contract from the list of store owners but keeps them in the history audit.\n      * @param _address Address of an Ethereum account.\n      */\n    function removeStoreOwner(address _address) public {\n        \n        // Ensure we're an admin\n        require(isCurrentAdmin(msg.sender));\n\n        // Fail if this account is already not in the list\n        require(storeOwners[_address]);\n\n        // Remove this admin user\n        storeOwners[_address] = false;\n        emit StoreOwnerRemoved(msg.sender, _address);\n    }\n}",
  "sourcePath": "/home/mzv7gd/blockchain/ethereum/training/consensys_academy/dapps/ryan-samo-final-v3/contracts/Authentication.sol",
  "compiler": {
    "name": "solc",
    "version": "0.4.24+commit.e67f0147.Emscripten.clang"
  },
  "schemaVersion": "2.0.1",
  "updatedAt": "2018-08-06T14:37:58.217Z"
}