{
  "contractName": "Marketplace",
  "abi": [
    {
      "constant": true,
      "inputs": [],
      "name": "stopped",
      "outputs": [
        {
          "name": "",
          "type": "bool"
        }
      ],
      "payable": false,
      "stateMutability": "view",
      "type": "function"
    },
    {
      "constant": true,
      "inputs": [],
      "name": "owner",
      "outputs": [
        {
          "name": "",
          "type": "address"
        }
      ],
      "payable": false,
      "stateMutability": "view",
      "type": "function"
    },
    {
      "constant": false,
      "inputs": [
        {
          "name": "newOwner",
          "type": "address"
        }
      ],
      "name": "transferOwnership",
      "outputs": [],
      "payable": false,
      "stateMutability": "nonpayable",
      "type": "function"
    },
    {
      "inputs": [
        {
          "name": "_authenticationContractAddress",
          "type": "address"
        }
      ],
      "payable": false,
      "stateMutability": "nonpayable",
      "type": "constructor"
    },
    {
      "anonymous": false,
      "inputs": [
        {
          "indexed": false,
          "name": "_id",
          "type": "uint256"
        }
      ],
      "name": "StoreOpened",
      "type": "event"
    },
    {
      "anonymous": false,
      "inputs": [
        {
          "indexed": false,
          "name": "_id",
          "type": "uint256"
        }
      ],
      "name": "StoreClosed",
      "type": "event"
    },
    {
      "anonymous": false,
      "inputs": [
        {
          "indexed": false,
          "name": "_storeId",
          "type": "uint256"
        },
        {
          "indexed": false,
          "name": "_sku",
          "type": "uint256"
        },
        {
          "indexed": false,
          "name": "_quantity",
          "type": "uint256"
        }
      ],
      "name": "ItemForSale",
      "type": "event"
    },
    {
      "anonymous": false,
      "inputs": [
        {
          "indexed": false,
          "name": "_storeId",
          "type": "uint256"
        },
        {
          "indexed": false,
          "name": "_sku",
          "type": "uint256"
        },
        {
          "indexed": false,
          "name": "_quantity",
          "type": "uint256"
        }
      ],
      "name": "ItemSold",
      "type": "event"
    },
    {
      "anonymous": false,
      "inputs": [
        {
          "indexed": false,
          "name": "_storeId",
          "type": "uint256"
        },
        {
          "indexed": false,
          "name": "_sku",
          "type": "uint256"
        },
        {
          "indexed": false,
          "name": "_quantity",
          "type": "uint256"
        }
      ],
      "name": "ItemShipped",
      "type": "event"
    },
    {
      "anonymous": false,
      "inputs": [
        {
          "indexed": false,
          "name": "_storeId",
          "type": "uint256"
        },
        {
          "indexed": false,
          "name": "_sku",
          "type": "uint256"
        },
        {
          "indexed": false,
          "name": "_quantity",
          "type": "uint256"
        }
      ],
      "name": "ItemReceived",
      "type": "event"
    },
    {
      "anonymous": false,
      "inputs": [
        {
          "indexed": false,
          "name": "_storeId",
          "type": "uint256"
        },
        {
          "indexed": false,
          "name": "_sku",
          "type": "uint256"
        },
        {
          "indexed": false,
          "name": "_quantity",
          "type": "uint256"
        }
      ],
      "name": "ItemNotForSale",
      "type": "event"
    },
    {
      "anonymous": false,
      "inputs": [
        {
          "indexed": true,
          "name": "previousOwner",
          "type": "address"
        },
        {
          "indexed": true,
          "name": "newOwner",
          "type": "address"
        }
      ],
      "name": "OwnershipTransferred",
      "type": "event"
    },
    {
      "constant": false,
      "inputs": [],
      "name": "emergencyStop",
      "outputs": [],
      "payable": false,
      "stateMutability": "nonpayable",
      "type": "function"
    },
    {
      "constant": false,
      "inputs": [
        {
          "name": "_name",
          "type": "string"
        }
      ],
      "name": "openStore",
      "outputs": [
        {
          "name": "opened",
          "type": "bool"
        }
      ],
      "payable": false,
      "stateMutability": "nonpayable",
      "type": "function"
    },
    {
      "constant": false,
      "inputs": [
        {
          "name": "_storeId",
          "type": "uint256"
        }
      ],
      "name": "closeStore",
      "outputs": [
        {
          "name": "closed",
          "type": "bool"
        }
      ],
      "payable": false,
      "stateMutability": "nonpayable",
      "type": "function"
    },
    {
      "constant": false,
      "inputs": [
        {
          "name": "_storeId",
          "type": "uint256"
        }
      ],
      "name": "reopenStore",
      "outputs": [
        {
          "name": "reopened",
          "type": "bool"
        }
      ],
      "payable": false,
      "stateMutability": "nonpayable",
      "type": "function"
    },
    {
      "constant": true,
      "inputs": [
        {
          "name": "_storeId",
          "type": "uint256"
        }
      ],
      "name": "getStore",
      "outputs": [
        {
          "name": "id",
          "type": "uint256"
        },
        {
          "name": "name",
          "type": "string"
        },
        {
          "name": "state",
          "type": "uint8"
        },
        {
          "name": "itemCount",
          "type": "uint256"
        }
      ],
      "payable": false,
      "stateMutability": "view",
      "type": "function"
    },
    {
      "constant": true,
      "inputs": [],
      "name": "getStoreIndexes",
      "outputs": [
        {
          "name": "indexes",
          "type": "uint256[]"
        }
      ],
      "payable": false,
      "stateMutability": "view",
      "type": "function"
    },
    {
      "constant": false,
      "inputs": [
        {
          "name": "_storeId",
          "type": "uint256"
        },
        {
          "name": "_sku",
          "type": "uint256"
        },
        {
          "name": "_name",
          "type": "string"
        },
        {
          "name": "_price",
          "type": "uint256"
        },
        {
          "name": "_quantity",
          "type": "uint256"
        }
      ],
      "name": "addItem",
      "outputs": [
        {
          "name": "added",
          "type": "bool"
        }
      ],
      "payable": false,
      "stateMutability": "nonpayable",
      "type": "function"
    },
    {
      "constant": false,
      "inputs": [
        {
          "name": "_storeId",
          "type": "uint256"
        },
        {
          "name": "_sku",
          "type": "uint256"
        },
        {
          "name": "_quantity",
          "type": "uint256"
        }
      ],
      "name": "removeItem",
      "outputs": [
        {
          "name": "removed",
          "type": "bool"
        }
      ],
      "payable": false,
      "stateMutability": "nonpayable",
      "type": "function"
    },
    {
      "constant": false,
      "inputs": [
        {
          "name": "_storeId",
          "type": "uint256"
        },
        {
          "name": "_sku",
          "type": "uint256"
        },
        {
          "name": "_quantity",
          "type": "uint256"
        }
      ],
      "name": "buyItem",
      "outputs": [
        {
          "name": "purchased",
          "type": "bool"
        }
      ],
      "payable": true,
      "stateMutability": "payable",
      "type": "function"
    },
    {
      "constant": false,
      "inputs": [
        {
          "name": "_storeId",
          "type": "uint256"
        },
        {
          "name": "_sku",
          "type": "uint256"
        },
        {
          "name": "_quantity",
          "type": "uint256"
        },
        {
          "name": "_buyer",
          "type": "address"
        }
      ],
      "name": "shipItem",
      "outputs": [
        {
          "name": "shipped",
          "type": "bool"
        }
      ],
      "payable": false,
      "stateMutability": "nonpayable",
      "type": "function"
    },
    {
      "constant": false,
      "inputs": [
        {
          "name": "_storeId",
          "type": "uint256"
        },
        {
          "name": "_sku",
          "type": "uint256"
        },
        {
          "name": "_quantity",
          "type": "uint256"
        }
      ],
      "name": "receiveItem",
      "outputs": [
        {
          "name": "received",
          "type": "bool"
        }
      ],
      "payable": false,
      "stateMutability": "nonpayable",
      "type": "function"
    },
    {
      "constant": true,
      "inputs": [
        {
          "name": "_storeId",
          "type": "uint256"
        },
        {
          "name": "_index",
          "type": "uint256"
        }
      ],
      "name": "getItem",
      "outputs": [
        {
          "name": "storeName",
          "type": "string"
        },
        {
          "name": "index",
          "type": "uint256"
        },
        {
          "name": "name",
          "type": "string"
        },
        {
          "name": "sku",
          "type": "uint256"
        },
        {
          "name": "price",
          "type": "uint256"
        },
        {
          "name": "quantity",
          "type": "uint256"
        },
        {
          "name": "state",
          "type": "uint256"
        },
        {
          "name": "seller",
          "type": "address"
        },
        {
          "name": "buyer",
          "type": "address"
        }
      ],
      "payable": false,
      "stateMutability": "view",
      "type": "function"
    },
    {
      "constant": true,
      "inputs": [
        {
          "name": "_storeId",
          "type": "uint256"
        },
        {
          "name": "_sku",
          "type": "uint256"
        }
      ],
      "name": "getItemCountOnHand",
      "outputs": [
        {
          "name": "quantity",
          "type": "uint256"
        }
      ],
      "payable": false,
      "stateMutability": "view",
      "type": "function"
    },
    {
      "constant": true,
      "inputs": [
        {
          "name": "_storeId",
          "type": "uint256"
        },
        {
          "name": "_state",
          "type": "uint8"
        }
      ],
      "name": "getItemIndexesByState",
      "outputs": [
        {
          "name": "indexes",
          "type": "uint256[]"
        }
      ],
      "payable": false,
      "stateMutability": "view",
      "type": "function"
    },
    {
      "constant": true,
      "inputs": [
        {
          "name": "_storeId",
          "type": "uint256"
        },
        {
          "name": "_sku",
          "type": "uint256"
        },
        {
          "name": "_state",
          "type": "uint8"
        }
      ],
      "name": "getItemIndexesBySkuAndState",
      "outputs": [
        {
          "name": "indexes",
          "type": "uint256[]"
        }
      ],
      "payable": false,
      "stateMutability": "view",
      "type": "function"
    }
  ],
  "bytecode": "0x60806040526000600260006101000a81548160ff02191690831515021790555034801561002b57600080fd5b5060405160208061271583398101806040528101908080519060200190929190505050336000806101000a81548173ffffffffffffffffffffffffffffffffffffffff021916908373ffffffffffffffffffffffffffffffffffffffff16021790555080600660006101000a81548173ffffffffffffffffffffffffffffffffffffffff021916908373ffffffffffffffffffffffffffffffffffffffff16021790555060006001819055505061262e806100e76000396000f3006080604052600436106100fc576000357c0100000000000000000000000000000000000000000000000000000000900463ffffffff1680630e9e1dc2146101015780631235fbc81461015a5780631f6a8318146101c65780634374c003146102125780634a1e68891461025757806359cc334a146102a257806363a599a41461044757806375f12b211461045e578063834031201461048d5780638da5cb5b1461055657806396c81989146105ad578063afd04bb314610626578063b49355e5146106a7578063d53dbf5214610700578063db073862146107a9578063dc160d5114610838578063ea6e55dd1461087d578063f2fde38b14610916575b600080fd5b34801561010d57600080fd5b50610140600480360381019080803590602001909291908035906020019092919080359060200190929190505050610959565b604051808215151515815260200191505060405180910390f35b34801561016657600080fd5b5061016f610b1d565b6040518080602001828103825283818151815260200191508051906020019060200280838360005b838110156101b2578082015181840152602081019050610197565b505050509050019250505060405180910390f35b6101f8600480360381019080803590602001909291908035906020019092919080359060200190929190505050610b75565b604051808215151515815260200191505060405180910390f35b34801561021e57600080fd5b5061023d60048036038101908080359060200190929190505050610f25565b604051808215151515815260200191505060405180910390f35b34801561026357600080fd5b5061028c600480360381019080803590602001909291908035906020019092919050505061102d565b6040518082815260200191505060405180910390f35b3480156102ae57600080fd5b506102d7600480360381019080803590602001909291908035906020019092919050505061104f565b60405180806020018a8152602001806020018981526020018881526020018781526020018681526020018573ffffffffffffffffffffffffffffffffffffffff1673ffffffffffffffffffffffffffffffffffffffff1681526020018473ffffffffffffffffffffffffffffffffffffffff1673ffffffffffffffffffffffffffffffffffffffff16815260200183810383528c818151815260200191508051906020019080838360005b8381101561039d578082015181840152602081019050610382565b50505050905090810190601f1680156103ca5780820380516001836020036101000a031916815260200191505b5083810382528a818151815260200191508051906020019080838360005b838110156104035780820151818401526020810190506103e8565b50505050905090810190601f1680156104305780820380516001836020036101000a031916815260200191505b509b50505050505050505050505060405180910390f35b34801561045357600080fd5b5061045c611398565b005b34801561046a57600080fd5b506104736114b8565b604051808215151515815260200191505060405180910390f35b34801561049957600080fd5b506104b8600480360381019080803590602001909291905050506114cb565b60405180858152602001806020018460028111156104d257fe5b60ff168152602001838152602001828103825285818151815260200191508051906020019080838360005b838110156105185780820151818401526020810190506104fd565b50505050905090810190601f1680156105455780820380516001836020036101000a031916815260200191505b509550505050505060405180910390f35b34801561056257600080fd5b5061056b6115e8565b604051808273ffffffffffffffffffffffffffffffffffffffff1673ffffffffffffffffffffffffffffffffffffffff16815260200191505060405180910390f35b3480156105b957600080fd5b5061060c600480360381019080803590602001909291908035906020019092919080359060200190929190803573ffffffffffffffffffffffffffffffffffffffff16906020019092919050505061160d565b604051808215151515815260200191505060405180910390f35b34801561063257600080fd5b5061068d600480360381019080803590602001908201803590602001908080601f0160208091040260200160405190810160405280939291908181526020018383808284378201915050505050509192919290505050611828565b604051808215151515815260200191505060405180910390f35b3480156106b357600080fd5b506106e6600480360381019080803590602001909291908035906020019092919080359060200190929190505050611ae5565b604051808215151515815260200191505060405180910390f35b34801561070c57600080fd5b5061078f6004803603810190808035906020019092919080359060200190929190803590602001908201803590602001908080601f01602080910402602001604051908101604052809392919081815260200183838082843782019150505050505091929192908035906020019092919080359060200190929190505050611c96565b604051808215151515815260200191505060405180910390f35b3480156107b557600080fd5b506107e160048036038101908080359060200190929190803560ff169060200190929190505050611fc8565b6040518080602001828103825283818151815260200191508051906020019060200280838360005b83811015610824578082015181840152602081019050610809565b505050509050019250505060405180910390f35b34801561084457600080fd5b5061086360048036038101908080359060200190929190505050611fde565b604051808215151515815260200191505060405180910390f35b34801561088957600080fd5b506108bf6004803603810190808035906020019092919080359060200190929190803560ff1690602001909291905050506120e6565b6040518080602001828103825283818151815260200191508051906020019060200280838360005b838110156109025780820151818401526020810190506108e7565b505050509050019250505060405180910390f35b34801561092257600080fd5b50610957600480360381019080803573ffffffffffffffffffffffffffffffffffffffff169060200190929190505050612408565b005b6000806060600080600260009054906101000a900460ff1615151561097d57600080fd5b61099488886003600581111561098f57fe5b6120e6565b92506000861180156109a7575082518611155b15156109b257600080fd5b600091505b8251821015610ac75782828151811015156109ce57fe5b9060200190602002015190503373ffffffffffffffffffffffffffffffffffffffff16600560008a8152602001908152602001600020600701600083815260200190815260200160002060050160009054906101000a900473ffffffffffffffffffffffffffffffffffffffff1673ffffffffffffffffffffffffffffffffffffffff161415610aba5783806001019450506004600560008a8152602001908152602001600020600701600083815260200190815260200160002060040160006101000a81548160ff02191690836005811115610aa757fe5b021790555085841415610ab957610ac7565b5b81806001019250506109b7565b7ffe5cc47ed9f26e9359ca2089ed88ba3a67b4220573f7e3fe89e9ba82e3a855c988888860405180848152602001838152602001828152602001935050505060405180910390a160019450505050509392505050565b60606004805480602002602001604051908101604052809291908181526020018280548015610b6b57602002820191906000526020600020905b815481526020019060010190808311610b57575b5050505050905090565b6000806000606080600080600260009054906101000a900460ff16151515610b9c57600080fd5b610bb38a8a60016005811115610bae57fe5b6120e6565b9350600088118015610bc6575083518811155b1515610bd157600080fd5b87604051908082528060200260200182016040528015610c005781602001602082028038833980820191505090505b509250600091505b8351821015610cca57600560008b815260200190815260200160002060070160008381526020019081526020016000206003015434101515610cbd5785806001019650508382815181101515610c5a57fe5b906020019060200201518383815181101515610c7257fe5b9060200190602002018181525050600560008b81526020019081526020016000206007016000838152602001908152602001600020600301548501945087861415610cbc57610cca565b5b8180600101925050610c08565b843410158015610cdb575060008514155b1515610ce657600080fd5b87835110151515610cf657600080fd5b7f205b6613171927df8c76164c9183dd985bb389bab25cd473c7cfbc5a8273dcb98a8a8a60405180848152602001838152602001828152602001935050505060405180910390a1600091505b8251821015610ec2578282815181101515610d5957fe5b90602001906020020151905033600560008c8152602001908152602001600020600701600083815260200190815260200160002060050160006101000a81548173ffffffffffffffffffffffffffffffffffffffff021916908373ffffffffffffffffffffffffffffffffffffffff1602179055506002600560008c8152602001908152602001600020600701600083815260200190815260200160002060040160006101000a81548160ff02191690836005811115610e1557fe5b02179055506000821415610eb557600560008b8152602001908152602001600020600701600082815260200190815260200160002060040160019054906101000a900473ffffffffffffffffffffffffffffffffffffffff1673ffffffffffffffffffffffffffffffffffffffff166108fc869081150290604051600060405180830381858888f19350505050158015610eb3573d6000803e3d6000fd5b505b8180600101925050610d42565b84341115610f14573373ffffffffffffffffffffffffffffffffffffffff166108fc8634039081150290604051600060405180830381858888f19350505050158015610f12573d6000803e3d6000fd5b505b600196505050505050509392505050565b6000813373ffffffffffffffffffffffffffffffffffffffff166005600083815260200190815260200160002060050160009054906101000a900473ffffffffffffffffffffffffffffffffffffffff1673ffffffffffffffffffffffffffffffffffffffff16141515610f9857600080fd5b600260009054906101000a900460ff16151515610fb457600080fd5b60016005600085815260200190815260200160002060030160006101000a81548160ff02191690836002811115610fe757fe5b02179055507ff07434ff6659002862f3ac6bfc8267b31c44f123d374dfe6015861a3dedfc0db836040518082815260200191505060405180910390a16001915050919050565b600061104683836001600581111561104157fe5b6120e6565b51905092915050565b606060006060600080600080600080600560008c81526020019081526020016000206002018054600181600116156101000203166002900480601f0160208091040260200160405190810160405280929190818152602001828054600181600116156101000203166002900480156111085780601f106110dd57610100808354040283529160200191611108565b820191906000526020600020905b8154815290600101906020018083116110eb57829003601f168201915b50505050509850600560008c815260200190815260200160002060070160008b8152602001908152602001600020600001549750600560008c815260200190815260200160002060070160008b81526020019081526020016000206001018054600181600116156101000203166002900480601f0160208091040260200160405190810160405280929190818152602001828054600181600116156101000203166002900480156111fa5780601f106111cf576101008083540402835291602001916111fa565b820191906000526020600020905b8154815290600101906020018083116111dd57829003601f168201915b50505050509650600560008c815260200190815260200160002060070160008b8152602001908152602001600020600201549550600560008c815260200190815260200160002060070160008b815260200190815260200160002060030154945061128f8b600560008e815260200190815260200160002060070160008d81526020019081526020016000206002015461102d565b9350600560008c815260200190815260200160002060070160008b815260200190815260200160002060040160009054906101000a900460ff1660058111156112d457fe5b9250600560008c815260200190815260200160002060070160008b815260200190815260200160002060040160019054906101000a900473ffffffffffffffffffffffffffffffffffffffff169150600560008c815260200190815260200160002060070160008b815260200190815260200160002060050160009054906101000a900473ffffffffffffffffffffffffffffffffffffffff1690508888888888888888889850985098509850985098509850985098509295985092959850929598565b600660009054906101000a900473ffffffffffffffffffffffffffffffffffffffff1673ffffffffffffffffffffffffffffffffffffffff1663bbb896ad336040518263ffffffff167c0100000000000000000000000000000000000000000000000000000000028152600401808273ffffffffffffffffffffffffffffffffffffffff1673ffffffffffffffffffffffffffffffffffffffff168152602001915050602060405180830381600087803b15801561145557600080fd5b505af1158015611469573d6000803e3d6000fd5b505050506040513d602081101561147f57600080fd5b8101908080519060200190929190505050151561149b57600080fd5b6001600260006101000a81548160ff021916908315150217905550565b600260009054906101000a900460ff1681565b600060606000806005600086815260200190815260200160002060010154600560008781526020019081526020016000206002016005600088815260200190815260200160002060030160009054906101000a900460ff166005600089815260200190815260200160002060060180549050828054600181600116156101000203166002900480601f0160208091040260200160405190810160405280929190818152602001828054600181600116156101000203166002900480156115d25780601f106115a7576101008083540402835291602001916115d2565b820191906000526020600020905b8154815290600101906020018083116115b557829003601f168201915b5050505050925093509350935093509193509193565b6000809054906101000a900473ffffffffffffffffffffffffffffffffffffffff1681565b6000806060600080883373ffffffffffffffffffffffffffffffffffffffff166005600083815260200190815260200160002060050160009054906101000a900473ffffffffffffffffffffffffffffffffffffffff1673ffffffffffffffffffffffffffffffffffffffff1614151561168657600080fd5b600260009054906101000a900460ff161515156116a257600080fd5b6116b98a8a600260058111156116b457fe5b6120e6565b9350600092505b83518310156117d05783838151811015156116d757fe5b9060200190602002015191508673ffffffffffffffffffffffffffffffffffffffff16600560008c8152602001908152602001600020600701600084815260200190815260200160002060050160009054906101000a900473ffffffffffffffffffffffffffffffffffffffff1673ffffffffffffffffffffffffffffffffffffffff1614156117c35784806001019550506003600560008c8152602001908152602001600020600701600084815260200190815260200160002060040160006101000a81548160ff021916908360058111156117b057fe5b0217905550878514156117c2576117d0565b5b82806001019350506116c0565b7f187a283cd796d69ed89bec676911a3bc7bf7a8288ec432bb8d43c5c53e301f4b8a8a8a60405180848152602001838152602001828152602001935050505060405180910390a1600195505050505050949350505050565b6000600660009054906101000a900473ffffffffffffffffffffffffffffffffffffffff1673ffffffffffffffffffffffffffffffffffffffff1663b804cd9d336040518263ffffffff167c0100000000000000000000000000000000000000000000000000000000028152600401808273ffffffffffffffffffffffffffffffffffffffff1673ffffffffffffffffffffffffffffffffffffffff168152602001915050602060405180830381600087803b1580156118e757600080fd5b505af11580156118fb573d6000803e3d6000fd5b505050506040513d602081101561191157600080fd5b8101908080519060200190929190505050151561192d57600080fd5b600260009054906101000a900460ff1615151561194957600080fd5b60015460056000600154815260200190815260200160002060000181905550600154600560006001548152602001908152602001600020600101819055508160056000600154815260200190815260200160002060020190805190602001906119b392919061255d565b50600160056000600154815260200190815260200160002060030160006101000a81548160ff021916908360028111156119e957fe5b02179055506000600560006001548152602001908152602001600020600401819055503360056000600154815260200190815260200160002060050160006101000a81548173ffffffffffffffffffffffffffffffffffffffff021916908373ffffffffffffffffffffffffffffffffffffffff160217905550600460015490806001815401808255809150509060018203906000526020600020016000909192909190915055507ff07434ff6659002862f3ac6bfc8267b31c44f123d374dfe6015861a3dedfc0db6001546040518082815260200191505060405180910390a160016000815480929190600101919050555060019050919050565b60008060606000863373ffffffffffffffffffffffffffffffffffffffff166005600083815260200190815260200160002060050160009054906101000a900473ffffffffffffffffffffffffffffffffffffffff1673ffffffffffffffffffffffffffffffffffffffff16141515611b5d57600080fd5b600260009054906101000a900460ff16151515611b7957600080fd5b611b90888860016005811115611b8b57fe5b6120e6565b9250600086118015611ba3575082518611155b1515611bae57600080fd5b600091505b8251821015611c4057838060010194505060058060008a815260200190815260200160002060070160008585815181101515611beb57fe5b90602001906020020151815260200190815260200160002060040160006101000a81548160ff02191690836005811115611c2157fe5b021790555085841415611c3357611c40565b8180600101925050611bb3565b7fd5652bd550b096cd758e5e61396acaaf3290a998c770e6ef1bf1161ae6c63b4888888860405180848152602001838152602001828152602001935050505060405180910390a160019450505050509392505050565b6000806000873373ffffffffffffffffffffffffffffffffffffffff166005600083815260200190815260200160002060050160009054906101000a900473ffffffffffffffffffffffffffffffffffffffff1673ffffffffffffffffffffffffffffffffffffffff16141515611d0c57600080fd5b600260009054906101000a900460ff16151515611d2857600080fd5b600092505b84831015611f71576001600560008b8152602001908152602001600020600601899080600181540180825580915050906001820390600052602060002001600090919290919091505503915081600560008b815260200190815260200160002060070160008481526020019081526020016000206000018190555086600560008b815260200190815260200160002060070160008481526020019081526020016000206001019080519060200190611de692919061255d565b5087600560008b815260200190815260200160002060070160008481526020019081526020016000206002018190555085600560008b81526020019081526020016000206007016000848152602001908152602001600020600301819055506001600560008b8152602001908152602001600020600701600084815260200190815260200160002060040160006101000a81548160ff02191690836005811115611e8c57fe5b021790555033600560008b8152602001908152602001600020600701600084815260200190815260200160002060040160016101000a81548173ffffffffffffffffffffffffffffffffffffffff021916908373ffffffffffffffffffffffffffffffffffffffff1602179055506000600560008b8152602001908152602001600020600701600084815260200190815260200160002060050160006101000a81548173ffffffffffffffffffffffffffffffffffffffff021916908373ffffffffffffffffffffffffffffffffffffffff1602179055508280600101935050611d2d565b7f67064babc9566e18a312759ca5e8c1cb3f101885cd90b15cbe5a70c3e753232589898760405180848152602001838152602001828152602001935050505060405180910390a16001935050505095945050505050565b6060611fd6836000846120e6565b905092915050565b6000813373ffffffffffffffffffffffffffffffffffffffff166005600083815260200190815260200160002060050160009054906101000a900473ffffffffffffffffffffffffffffffffffffffff1673ffffffffffffffffffffffffffffffffffffffff1614151561205157600080fd5b600260009054906101000a900460ff1615151561206d57600080fd5b60026005600085815260200190815260200160002060030160006101000a81548160ff021916908360028111156120a057fe5b02179055507f78ddf887da739003ffb119f607d8372679fb9b29e30ed36c8f400741cbdbe51d836040518082815260200191505060405180910390a16001915050919050565b6060600080600080858060ff166005808111156120ff57fe5b1015151561210c57600080fd5b8660ff16600581111561211b57fe5b9350600092505b600560008a8152602001908152602001600020600601805490508310156122555760008814801561219f575083600581111561215a57fe5b600560008b8152602001908152602001600020600701600085815260200190815260200160002060040160009054906101000a900460ff16600581111561219d57fe5b145b156121b1578480600101955050612248565b87600560008b8152602001908152602001600020600601848154811015156121d557fe5b906000526020600020015414801561223957508360058111156121f457fe5b600560008b8152602001908152602001600020600701600085815260200190815260200160002060040160009054906101000a900460ff16600581111561223757fe5b145b156122475784806001019550505b5b8280600101935050612122565b846040519080825280602002602001820160405280156122845781602001602082028038833980820191505090505b509550600092505b600560008a8152602001908152602001600020600601805490508310156123f95760008814801561230957508360058111156122c457fe5b600560008b8152602001908152602001600020600701600085815260200190815260200160002060040160009054906101000a900460ff16600581111561230757fe5b145b156123385782868381518110151561231d57fe5b906020019060200201818152505081806001019250506123ec565b87600560008b81526020019081526020016000206006018481548110151561235c57fe5b90600052602060002001541480156123c0575083600581111561237b57fe5b600560008b8152602001908152602001600020600701600085815260200190815260200160002060040160009054906101000a900460ff1660058111156123be57fe5b145b156123eb578286838151811015156123d457fe5b906020019060200201818152505081806001019250505b5b828060010193505061228c565b85955050505050509392505050565b6000809054906101000a900473ffffffffffffffffffffffffffffffffffffffff1673ffffffffffffffffffffffffffffffffffffffff163373ffffffffffffffffffffffffffffffffffffffff1614151561246357600080fd5b600073ffffffffffffffffffffffffffffffffffffffff168173ffffffffffffffffffffffffffffffffffffffff161415151561249f57600080fd5b8073ffffffffffffffffffffffffffffffffffffffff166000809054906101000a900473ffffffffffffffffffffffffffffffffffffffff1673ffffffffffffffffffffffffffffffffffffffff167f8be0079c531659141344cd1fd0a4f28419497f9722a3daafe3b4186f6b6457e060405160405180910390a3806000806101000a81548173ffffffffffffffffffffffffffffffffffffffff021916908373ffffffffffffffffffffffffffffffffffffffff16021790555050565b828054600181600116156101000203166002900490600052602060002090601f016020900481019282601f1061259e57805160ff19168380011785556125cc565b828001600101855582156125cc579182015b828111156125cb5782518255916020019190600101906125b0565b5b5090506125d991906125dd565b5090565b6125ff91905b808211156125fb5760008160009055506001016125e3565b5090565b905600a165627a7a72305820e80fa0e482712fcd0b1d89ae36ff47b76b41734ee42c5385a485f0967b0fc6cd0029",
  "source": "pragma solidity ^0.4.22;\n\nimport \"./Authentication.sol\";\nimport \"../installed_contracts/zeppelin/contracts/ownership/Ownable.sol\";\n\n/**\n * @title Marketplace\n * @dev The Marketplace contract provides an online marketplace\n * service of stores and items.\n */\ncontract Marketplace is Ownable {\n    \n    // Keep track of the storeId\n    uint private storeId;\n    \n    // For circuit breaker\n    bool public stopped = false;\n    \n    // Marketplace admins\n    mapping (address => bool) private admins;\n    \n    // Mapping to keep track of 1:N Store Structs\n    uint[] private storeList;\n    mapping (uint => Store) private storeStructs;\n    \n    // Keep track of state via enums\n    enum StoreState { NotSet, Opened, Closed }\n    enum ItemState { NotSet, ForSale, Sold, Shipped , Received, NotForSale }\n    \n    // Defines the authentication contract we use for credentials\n    Authentication private authenticationContract;\n    \n    // Structs\n    struct Store {\n        uint index;\n        uint id;\n        string name;\n        StoreState state;\n        uint skuCount;\n        address owner;\n        uint[] itemList;\n        mapping (uint => Item) itemStructs;\n    }\n    \n    struct Item {\n        uint index;\n        string name;\n        uint sku;\n        uint price;\n        ItemState state;\n        address seller;\n        address buyer;\n    }\n    \n    // Store Events\n    event StoreOpened (uint _id);\n    event StoreClosed (uint _id);\n    \n    // Item Events\n    event ItemForSale (uint _storeId, uint _sku, uint _quantity);\n    event ItemSold (uint _storeId, uint _sku, uint _quantity);\n    event ItemShipped (uint _storeId, uint _sku, uint _quantity);\n    event ItemReceived (uint _storeId, uint _sku, uint _quantity);\n    event ItemNotForSale (uint _storeId, uint _sku, uint _quantity);\n    \n    // Modifiers\n    modifier stopInEmergency {require(!stopped); _;}\n    modifier adminOnly {require(authenticationContract.isCurrentAdmin(msg.sender)); _;}\n    modifier anyStoreOwnerOnly {require(authenticationContract.isCurrentStoreOwner(msg.sender)); _;}\n    modifier thisStoreOwnerOnly(uint _storeId) {require(storeStructs[_storeId].owner == msg.sender); _;}\n    modifier isValidState(uint8 _state) {require(uint(ItemState.NotForSale) >= _state); _;}\n    \n    /** @dev Constructor with references to our other contracts.\n      * @param _authenticationContractAddress Address of the Authentication contract.\n      */\n    constructor(address _authenticationContractAddress) public {\n        authenticationContract = Authentication(_authenticationContractAddress);\n        storeId = 0;\n    }\n\n    /** @dev Function to allow an admin to perform and emergency stop on the contract.\n      */\n    function emergencyStop() public adminOnly {\n        stopped = true;\n    }\n     \n    /** @dev Function to allow a store owner to add a new Store.\n      * @param _name Name of the store.\n      * @return opened Is the store opened.\n      */   \n    function openStore(string _name) \n        public \n        anyStoreOwnerOnly \n        stopInEmergency\n        returns (bool opened) {\n        \n        // Fill in a new Store struct\n        storeStructs[storeId].index = storeId;\n        storeStructs[storeId].id = storeId;\n        storeStructs[storeId].name = _name;\n        storeStructs[storeId].state = StoreState.Opened;\n        storeStructs[storeId].skuCount = 0;\n        storeStructs[storeId].owner = msg.sender;\n        \n        // Add the storeId to the index\n        storeList.push(storeId);\n        \n        // Log the event\n        emit StoreOpened(storeId);\n        \n        storeId++;\n        return true;\n    }\n     \n    /** @dev Function to allow a store owner to close a Store.\n      * @param _storeId The ID of the store.\n      * @return closed Is the store closed.\n      */   \n    function closeStore(uint _storeId) \n        public \n        thisStoreOwnerOnly(_storeId)\n        stopInEmergency\n        returns (bool closed) {\n\n        // Mark the store as closed\n        storeStructs[_storeId].state = StoreState.Closed;\n        \n        // Log the event\n        emit StoreClosed(_storeId);\n        \n        return true;\n    }\n     \n    /** @dev Function to allow a store owner to reopen a closed Store.\n      * @param _storeId The ID of the store.\n      * @return reopened Is the store reopened.\n      */\n    function reopenStore(uint _storeId) \n        public \n        thisStoreOwnerOnly(_storeId)\n        stopInEmergency\n        returns (bool reopened) {\n\n        // Mark the store as closed\n        storeStructs[_storeId].state = StoreState.Opened;\n        \n        // Log the event\n        emit StoreOpened(_storeId);\n        \n        return true;\n    }\n    \n    /** @dev Function to return a Store.\n      * @param _storeId The ID of the store.\n      * @return id The store id.\n      * @return name The store name.\n      * @return state The store state. Open or Closed.\n      * @return itemList The store item list. An array of items.\n      */\n    function getStore(uint _storeId)\n        public\n        view\n        returns(uint id, string name, StoreState state, uint itemCount)\n    {\n        return(storeStructs[_storeId].id, storeStructs[_storeId].name, storeStructs[_storeId].state, storeStructs[_storeId].itemList.length);\n    }\n    \n    /** @dev Function to return an array of store indexes.\n      * @return storeList an array of store indexes.\n      */\n    function getStoreIndexes() \n        public \n        view \n        returns(uint[] indexes) {\n        return storeList;\n    }\n  \n    /** @dev Function to allow a store owner to add a new Item for sale.\n      * @param _storeId The ID of the store where the item will be sold.\n      * @param _sku The sku of the item.\n      * @param _name The name fo the item.\n      * @param _price The price fo the item.\n      * @param _quantity The quantity fo the item.\n      * @return added Was the item added.\n      */\n    function addItem(uint _storeId, uint _sku, string _name, uint _price, uint _quantity) \n        public \n        thisStoreOwnerOnly(_storeId) \n        stopInEmergency\n        returns(bool added) {\n        \n        // Add 1:N items to the store based on quantity\n        for (uint i = 0; i < _quantity; i++) {\n            \n            // Push a new index value for the item\n            uint itemIndex = storeStructs[_storeId].itemList.push(_sku) - 1;\n            storeStructs[_storeId].itemStructs[itemIndex].index = itemIndex;\n            storeStructs[_storeId].itemStructs[itemIndex].name = _name;\n            storeStructs[_storeId].itemStructs[itemIndex].sku = _sku;\n            storeStructs[_storeId].itemStructs[itemIndex].price = _price;\n            storeStructs[_storeId].itemStructs[itemIndex].state = ItemState.ForSale;\n            storeStructs[_storeId].itemStructs[itemIndex].seller = msg.sender;\n            storeStructs[_storeId].itemStructs[itemIndex].buyer = 0;\n\n        }\n        \n        // Log the event\n        emit ItemForSale(_storeId, _sku, _quantity);\n        return true;\n    }\n    \n    /** @dev Function to allow the store owner to remove an Item for sale. \n      * @dev Logical delete as it changes the state to ItemState.NotForSale.\n      * @param _storeId The ID of the store where the item will be sold.\n      * @param _sku The sku of the item.\n      * @param _quantity The quantity fo the item.\n      * @return removed Was the item removed.\n      */\n    function removeItem(uint _storeId, uint _sku, uint _quantity) \n        public \n        thisStoreOwnerOnly(_storeId)\n        stopInEmergency\n        returns(bool removed) {\n        \n        uint removableCount;\n        uint[] memory indexes = getItemIndexesBySkuAndState(_storeId, _sku, uint8(ItemState.ForSale));\n        \n        // Make sure they specify a valid quantity\n        require(_quantity > 0 && _quantity <= indexes.length);\n        \n        // Remove 1:N items from the store based on quantity\n        for (uint i = 0; i < indexes.length; i++) {\n            removableCount++;\n            storeStructs[_storeId].itemStructs[indexes[i]].state = ItemState.NotForSale;\n            if(removableCount == _quantity) {break;}\n        }\n        \n        // Log the event\n        emit ItemNotForSale(_storeId, _sku, _quantity);\n        \n        return true;\n    }\n\n    /** @dev Function to allow the purchasing of an Item. \n      * @param _storeId The ID of the store where the item will be sold.\n      * @param _sku The sku of the item.\n      * @param _quantity The quantity fo the item.\n      * @return purchased Was the item purchased.\n      */\n    function buyItem(uint _storeId, uint _sku, uint _quantity)\n      public\n      payable\n      stopInEmergency\n      returns(bool purchased)\n    {\n        uint sellableCount;\n        uint totalPrice;\n        \n        // Get the indexes of all items that match the store, sku, and state\n        uint[] memory indexes = getItemIndexesBySkuAndState(_storeId, _sku, uint8(ItemState.ForSale));\n        \n        // Make sure they specify a valid quantity\n        require(_quantity > 0 && _quantity <= indexes.length);\n        \n        // Track the sellable items\n        uint[] memory sellableIndexes = new uint[](_quantity);\n        \n        // Pick the sellable items based on quantity requested and total the sale price\n        for (uint i = 0; i < indexes.length; i++) {\n            if(msg.value >= storeStructs[_storeId].itemStructs[i].price)\n            {\n                sellableCount++;\n                sellableIndexes[i] = indexes[i];\n                totalPrice += storeStructs[_storeId].itemStructs[i].price;\n                if(sellableCount == _quantity) {break;}\n            }\n        }\n        \n        // Make sure they paid enough and we have sellable inventory\n        require(msg.value >= totalPrice && totalPrice != 0);\n        require(sellableIndexes.length >= _quantity);\n        \n        // Log the sale\n        emit ItemSold(_storeId, _sku, _quantity);\n        \n        // Loop through the sellable items\n        for (i = 0; i < sellableIndexes.length; i++) {\n            \n            // Mark the items as Sold\n            uint itemIndex = sellableIndexes[i];\n            storeStructs[_storeId].itemStructs[itemIndex].buyer = msg.sender;\n            storeStructs[_storeId].itemStructs[itemIndex].state = ItemState.Sold;\n            \n            // Send the value of all goods to the seller from the buyer once\n            if(i == 0) {storeStructs[_storeId].itemStructs[itemIndex].seller.transfer(totalPrice);}\n        }\n        \n        // Refund the buyer any excess funds if they overpaid\n        if (msg.value > totalPrice) {\n            msg.sender.transfer(msg.value - totalPrice);\n        }\n        \n        return true;\n    }\n\n    /** @dev Function to ship the Store Item only if it is sold. \n      * @param _storeId The ID of the store where the item will be sold.\n      * @param _sku The sku of the item.\n      * @param _quantity The quantity fo the item.\n      * @param _buyer The buyer fo the item.\n      * @return shipped Was the item shipped.\n      */\n    function shipItem(uint _storeId, uint _sku, uint _quantity, address _buyer)\n      public\n      thisStoreOwnerOnly(_storeId)\n      stopInEmergency\n      returns(bool shipped)\n    {\n        uint shippableCount;\n        \n        // Get the indexes of all items that match the store, sku, and state\n        uint[] memory indexes = getItemIndexesBySkuAndState(_storeId, _sku, uint8(ItemState.Sold));\n        \n        // Ship to the buyer only\n        for (uint i = 0; i < indexes.length; i++) {\n            uint itemIndex = indexes[i];\n            if(storeStructs[_storeId].itemStructs[itemIndex].buyer == _buyer) {\n                shippableCount++;\n                storeStructs[_storeId].itemStructs[itemIndex].state = ItemState.Shipped;\n                if(shippableCount == _quantity) {break;}\n            }\n        }\n        \n        // Log the event\n        emit ItemShipped(_storeId, _sku, _quantity);\n        return true;\n    }\n\n    /** @dev Function that allows the buyer to mark the Store Item as received. \n      * @param _storeId The ID of the store where the item will be sold.\n      * @param _sku The sku of the item.\n      * @param _quantity The quantity fo the item.\n      * @return received Was the item received.\n      */\n    function receiveItem(uint _storeId, uint _sku, uint _quantity)\n      public\n      stopInEmergency\n      returns(bool received)\n    {\n        uint receivableCount;\n        \n        // Get the indexes of all items that match the store, sku, and state\n        uint[] memory indexes = getItemIndexesBySkuAndState(_storeId, _sku, uint8(ItemState.Shipped));\n        \n        //Make sure they are not trying to receive more than was shipped but they can short.\n        require(_quantity > 0 && _quantity <= indexes.length);\n        \n        // Allow buyer only to receive.\n        for (uint i = 0; i < indexes.length; i++) {\n            uint itemIndex = indexes[i];\n            if(storeStructs[_storeId].itemStructs[itemIndex].buyer == msg.sender) {\n                receivableCount++;\n                storeStructs[_storeId].itemStructs[itemIndex].state = ItemState.Received;\n                if(receivableCount == _quantity) {break;}\n            }\n        }\n        \n        // Log the event\n        emit ItemReceived(_storeId, _sku, _quantity);\n        return true;\n    }\n    \n    /** @dev Function that returns an Item struct. \n      * @param _storeId The ID of the store where the item will be sold.\n      * @param _index The index of the item.\n      * @return storeName The name of the store where the item resides.\n      * @return index The index of the item in the store.\n      * @return name The name of the item.\n      * @return sku The sku of the item.\n      * @return price The price of the item.\n      * @return quantity The quantity of the item.\n      * @return state The state of the item. ForSale, Sold, etc.\n      * @return seller The seller of the item.\n      * @return buyer The buyer of the item.\n      */\n    function getItem(uint _storeId, uint _index) \n        public \n        view \n        returns (string storeName, uint index, string name, uint sku, uint price, uint quantity, uint state, address seller, address buyer) {\n        storeName = storeStructs[_storeId].name;\n        index = storeStructs[_storeId].itemStructs[_index].index;\n        name = storeStructs[_storeId].itemStructs[_index].name;\n        sku = storeStructs[_storeId].itemStructs[_index].sku;\n        price = storeStructs[_storeId].itemStructs[_index].price;\n        quantity = getItemCountOnHand(_storeId, storeStructs[_storeId].itemStructs[_index].sku);\n        state = uint(storeStructs[_storeId].itemStructs[_index].state);\n        seller = storeStructs[_storeId].itemStructs[_index].seller;\n        buyer = storeStructs[_storeId].itemStructs[_index].buyer;\n        return (storeName, index, name, sku, price, quantity, state, seller, buyer);\n    }\n    \n    /** @dev For a given store and sku, get the item count in stock, i.e. ItemState.ForSale. \n      * @param _storeId The ID of the store where the item will be sold.\n      * @param _sku The _sku of the item.\n      * @return quantity The quantity of the item.\n      */\n    function getItemCountOnHand(uint _storeId, uint _sku) public view returns(uint quantity) {\n        return getItemIndexesBySkuAndState(_storeId, _sku, uint8(ItemState.ForSale)).length;\n    }\n    \n    /** @dev For a given store, return the indexes of items by a given state. \n      * @param _storeId The ID of the store where the item will be sold.\n      * @param _state The state of the item. ForSale, Sold, etc.\n      * @return indexes The indexes of the items by the state.\n      */\n    function getItemIndexesByState(uint _storeId, uint8 _state) public view returns(uint[] indexes) {\n        return getItemIndexesBySkuAndState(_storeId, 0, _state);\n    }\n    \n    /** @dev Get the indexes of all items for a store given a sku and optionally a state. \n      * @dev Not a fan of the double looping but it works without having to use storage arrays. \n      * @param _storeId The ID of the store where the item will be sold.\n      * @param _sku The _sku of the item.\n      * @param _state The state of the item. ForSale, Sold, etc.\n      * @return indexes The indexes of the items by the sku and state.\n      */\n    function getItemIndexesBySkuAndState(uint _storeId, uint _sku, uint8 _state) \n        public \n        view \n        isValidState(_state)\n        returns(uint[] indexes) {\n    \n        uint matchedIndexCount;\n        \n        // Cast the passed in state from int to the enum\n        ItemState itemState = ItemState(_state);\n\n        // Grab the index values stored in the struct\n        for (uint i = 0; i < storeStructs[_storeId].itemList.length; i++) {\n\n            // Match only on state OR match on sku and state\n            if(_sku == 0 && \n               storeStructs[_storeId].itemStructs[i].state == itemState) {\n                matchedIndexCount++;\n            } else if(storeStructs[_storeId].itemList[i] == _sku && \n               storeStructs[_storeId].itemStructs[i].state == itemState) {\n                matchedIndexCount++;\n            }\n        }\n        \n        // Our return array\n        indexes = new uint[](matchedIndexCount);\n        uint j;\n        \n        // Grab the index values stored in the struct\n        for (i = 0; i < storeStructs[_storeId].itemList.length; i++) {\n\n            // Match only on state OR match on sku and state\n            if(_sku == 0 && \n               storeStructs[_storeId].itemStructs[i].state == itemState) {\n                indexes[j] = i;\n                j++;\n            } else if(storeStructs[_storeId].itemList[i] == _sku && \n               storeStructs[_storeId].itemStructs[i].state == itemState) {\n                indexes[j] = i;\n                j++;\n            }\n        }\n    \n        return indexes;\n    }\n    \n}",
  "sourcePath": "/home/mzv7gd/blockchain/ethereum/training/consensys_academy/dapps/ryan-samo-final-v3/contracts/Marketplace.sol",
  "compiler": {
    "name": "solc",
    "version": "0.4.24+commit.e67f0147.Emscripten.clang"
  },
  "schemaVersion": "2.0.1",
  "updatedAt": "2018-08-06T14:37:58.266Z"
}